{
  "_format": "hh-sol-artifact-1",
  "contractName": "ContentNFTMarketplace",
  "sourceName": "contracts/ContentNFTMarketplace.sol",
  "abi": [
    {
      "inputs": [
        {
          "internalType": "uint96",
          "name": "initialPlatformFeeBps",
          "type": "uint96"
        },
        {
          "internalType": "address",
          "name": "initialOwner",
          "type": "address"
        }
      ],
      "stateMutability": "nonpayable",
      "type": "constructor"
    },
    {
      "inputs": [],
      "name": "AlreadyListed",
      "type": "error"
    },
    {
      "inputs": [
        {
          "internalType": "uint256",
          "name": "existingTokenId",
          "type": "uint256"
        }
      ],
      "name": "ContentAlreadyRegistered",
      "type": "error"
    },
    {
      "inputs": [
        {
          "internalType": "uint256",
          "name": "numerator",
          "type": "uint256"
        },
        {
          "internalType": "uint256",
          "name": "denominator",
          "type": "uint256"
        }
      ],
      "name": "ERC2981InvalidDefaultRoyalty",
      "type": "error"
    },
    {
      "inputs": [
        {
          "internalType": "address",
          "name": "receiver",
          "type": "address"
        }
      ],
      "name": "ERC2981InvalidDefaultRoyaltyReceiver",
      "type": "error"
    },
    {
      "inputs": [
        {
          "internalType": "uint256",
          "name": "tokenId",
          "type": "uint256"
        },
        {
          "internalType": "uint256",
          "name": "numerator",
          "type": "uint256"
        },
        {
          "internalType": "uint256",
          "name": "denominator",
          "type": "uint256"
        }
      ],
      "name": "ERC2981InvalidTokenRoyalty",
      "type": "error"
    },
    {
      "inputs": [
        {
          "internalType": "uint256",
          "name": "tokenId",
          "type": "uint256"
        },
        {
          "internalType": "address",
          "name": "receiver",
          "type": "address"
        }
      ],
      "name": "ERC2981InvalidTokenRoyaltyReceiver",
      "type": "error"
    },
    {
      "inputs": [
        {
          "internalType": "address",
          "name": "sender",
          "type": "address"
        },
        {
          "internalType": "uint256",
          "name": "tokenId",
          "type": "uint256"
        },
        {
          "internalType": "address",
          "name": "owner",
          "type": "address"
        }
      ],
      "name": "ERC721IncorrectOwner",
      "type": "error"
    },
    {
      "inputs": [
        {
          "internalType": "address",
          "name": "operator",
          "type": "address"
        },
        {
          "internalType": "uint256",
          "name": "tokenId",
          "type": "uint256"
        }
      ],
      "name": "ERC721InsufficientApproval",
      "type": "error"
    },
    {
      "inputs": [
        {
          "internalType": "address",
          "name": "approver",
          "type": "address"
        }
      ],
      "name": "ERC721InvalidApprover",
      "type": "error"
    },
    {
      "inputs": [
        {
          "internalType": "address",
          "name": "operator",
          "type": "address"
        }
      ],
      "name": "ERC721InvalidOperator",
      "type": "error"
    },
    {
      "inputs": [
        {
          "internalType": "address",
          "name": "owner",
          "type": "address"
        }
      ],
      "name": "ERC721InvalidOwner",
      "type": "error"
    },
    {
      "inputs": [
        {
          "internalType": "address",
          "name": "receiver",
          "type": "address"
        }
      ],
      "name": "ERC721InvalidReceiver",
      "type": "error"
    },
    {
      "inputs": [
        {
          "internalType": "address",
          "name": "sender",
          "type": "address"
        }
      ],
      "name": "ERC721InvalidSender",
      "type": "error"
    },
    {
      "inputs": [
        {
          "internalType": "uint256",
          "name": "tokenId",
          "type": "uint256"
        }
      ],
      "name": "ERC721NonexistentToken",
      "type": "error"
    },
    {
      "inputs": [],
      "name": "EncryptedContentURIRequired",
      "type": "error"
    },
    {
      "inputs": [],
      "name": "IncorrectPayment",
      "type": "error"
    },
    {
      "inputs": [],
      "name": "InvalidContentHash",
      "type": "error"
    },
    {
      "inputs": [],
      "name": "MarketplaceNotApproved",
      "type": "error"
    },
    {
      "inputs": [],
      "name": "MetadataURIRequired",
      "type": "error"
    },
    {
      "inputs": [],
      "name": "NotListed",
      "type": "error"
    },
    {
      "inputs": [],
      "name": "NotTokenOwner",
      "type": "error"
    },
    {
      "inputs": [
        {
          "internalType": "address",
          "name": "owner",
          "type": "address"
        }
      ],
      "name": "OwnableInvalidOwner",
      "type": "error"
    },
    {
      "inputs": [
        {
          "internalType": "address",
          "name": "account",
          "type": "address"
        }
      ],
      "name": "OwnableUnauthorizedAccount",
      "type": "error"
    },
    {
      "inputs": [],
      "name": "PlatformFeeTooHigh",
      "type": "error"
    },
    {
      "inputs": [],
      "name": "PriceMustBeGreaterThanZero",
      "type": "error"
    },
    {
      "inputs": [],
      "name": "ReentrancyGuardReentrantCall",
      "type": "error"
    },
    {
      "inputs": [],
      "name": "RoyaltyTooHigh",
      "type": "error"
    },
    {
      "inputs": [],
      "name": "SelfPurchase",
      "type": "error"
    },
    {
      "anonymous": false,
      "inputs": [
        {
          "indexed": true,
          "internalType": "address",
          "name": "owner",
          "type": "address"
        },
        {
          "indexed": true,
          "internalType": "address",
          "name": "approved",
          "type": "address"
        },
        {
          "indexed": true,
          "internalType": "uint256",
          "name": "tokenId",
          "type": "uint256"
        }
      ],
      "name": "Approval",
      "type": "event"
    },
    {
      "anonymous": false,
      "inputs": [
        {
          "indexed": true,
          "internalType": "address",
          "name": "owner",
          "type": "address"
        },
        {
          "indexed": true,
          "internalType": "address",
          "name": "operator",
          "type": "address"
        },
        {
          "indexed": false,
          "internalType": "bool",
          "name": "approved",
          "type": "bool"
        }
      ],
      "name": "ApprovalForAll",
      "type": "event"
    },
    {
      "anonymous": false,
      "inputs": [
        {
          "indexed": false,
          "internalType": "uint256",
          "name": "_fromTokenId",
          "type": "uint256"
        },
        {
          "indexed": false,
          "internalType": "uint256",
          "name": "_toTokenId",
          "type": "uint256"
        }
      ],
      "name": "BatchMetadataUpdate",
      "type": "event"
    },
    {
      "anonymous": false,
      "inputs": [
        {
          "indexed": true,
          "internalType": "uint256",
          "name": "tokenId",
          "type": "uint256"
        },
        {
          "indexed": true,
          "internalType": "address",
          "name": "owner",
          "type": "address"
        }
      ],
      "name": "Burned",
      "type": "event"
    },
    {
      "anonymous": false,
      "inputs": [
        {
          "indexed": true,
          "internalType": "uint256",
          "name": "tokenId",
          "type": "uint256"
        },
        {
          "indexed": true,
          "internalType": "address",
          "name": "creator",
          "type": "address"
        },
        {
          "indexed": false,
          "internalType": "enum ContentNFTMarketplace.ContentType",
          "name": "contentType",
          "type": "uint8"
        },
        {
          "indexed": false,
          "internalType": "string",
          "name": "metadataURI",
          "type": "string"
        },
        {
          "indexed": false,
          "internalType": "string",
          "name": "previewURI",
          "type": "string"
        },
        {
          "indexed": false,
          "internalType": "uint96",
          "name": "royaltyBps",
          "type": "uint96"
        }
      ],
      "name": "ContentMinted",
      "type": "event"
    },
    {
      "anonymous": false,
      "inputs": [
        {
          "indexed": true,
          "internalType": "uint256",
          "name": "tokenId",
          "type": "uint256"
        },
        {
          "indexed": true,
          "internalType": "address",
          "name": "seller",
          "type": "address"
        },
        {
          "indexed": false,
          "internalType": "uint256",
          "name": "price",
          "type": "uint256"
        }
      ],
      "name": "Listed",
      "type": "event"
    },
    {
      "anonymous": false,
      "inputs": [
        {
          "indexed": true,
          "internalType": "uint256",
          "name": "tokenId",
          "type": "uint256"
        },
        {
          "indexed": true,
          "internalType": "address",
          "name": "seller",
          "type": "address"
        }
      ],
      "name": "ListingCancelled",
      "type": "event"
    },
    {
      "anonymous": false,
      "inputs": [
        {
          "indexed": false,
          "internalType": "uint256",
          "name": "_tokenId",
          "type": "uint256"
        }
      ],
      "name": "MetadataUpdate",
      "type": "event"
    },
    {
      "anonymous": false,
      "inputs": [
        {
          "indexed": true,
          "internalType": "address",
          "name": "previousOwner",
          "type": "address"
        },
        {
          "indexed": true,
          "internalType": "address",
          "name": "newOwner",
          "type": "address"
        }
      ],
      "name": "OwnershipTransferred",
      "type": "event"
    },
    {
      "anonymous": false,
      "inputs": [
        {
          "indexed": false,
          "internalType": "uint96",
          "name": "newFeeBps",
          "type": "uint96"
        }
      ],
      "name": "PlatformFeeUpdated",
      "type": "event"
    },
    {
      "anonymous": false,
      "inputs": [
        {
          "indexed": true,
          "internalType": "uint256",
          "name": "tokenId",
          "type": "uint256"
        },
        {
          "indexed": true,
          "internalType": "address",
          "name": "seller",
          "type": "address"
        },
        {
          "indexed": true,
          "internalType": "address",
          "name": "buyer",
          "type": "address"
        },
        {
          "indexed": false,
          "internalType": "uint256",
          "name": "price",
          "type": "uint256"
        },
        {
          "indexed": false,
          "internalType": "uint256",
          "name": "royaltyAmount",
          "type": "uint256"
        },
        {
          "indexed": false,
          "internalType": "uint256",
          "name": "platformFeeAmount",
          "type": "uint256"
        }
      ],
      "name": "Sale",
      "type": "event"
    },
    {
      "anonymous": false,
      "inputs": [
        {
          "indexed": true,
          "internalType": "address",
          "name": "from",
          "type": "address"
        },
        {
          "indexed": true,
          "internalType": "address",
          "name": "to",
          "type": "address"
        },
        {
          "indexed": true,
          "internalType": "uint256",
          "name": "tokenId",
          "type": "uint256"
        }
      ],
      "name": "Transfer",
      "type": "event"
    },
    {
      "anonymous": false,
      "inputs": [
        {
          "indexed": true,
          "internalType": "address",
          "name": "recipient",
          "type": "address"
        },
        {
          "indexed": false,
          "internalType": "uint256",
          "name": "amount",
          "type": "uint256"
        }
      ],
      "name": "Withdrawn",
      "type": "event"
    },
    {
      "inputs": [],
      "name": "MAX_PLATFORM_FEE_BPS",
      "outputs": [
        {
          "internalType": "uint96",
          "name": "",
          "type": "uint96"
        }
      ],
      "stateMutability": "view",
      "type": "function"
    },
    {
      "inputs": [],
      "name": "MAX_ROYALTY_BPS",
      "outputs": [
        {
          "internalType": "uint96",
          "name": "",
          "type": "uint96"
        }
      ],
      "stateMutability": "view",
      "type": "function"
    },
    {
      "inputs": [
        {
          "internalType": "address",
          "name": "to",
          "type": "address"
        },
        {
          "internalType": "uint256",
          "name": "tokenId",
          "type": "uint256"
        }
      ],
      "name": "approve",
      "outputs": [],
      "stateMutability": "nonpayable",
      "type": "function"
    },
    {
      "inputs": [
        {
          "internalType": "address",
          "name": "owner",
          "type": "address"
        }
      ],
      "name": "balanceOf",
      "outputs": [
        {
          "internalType": "uint256",
          "name": "",
          "type": "uint256"
        }
      ],
      "stateMutability": "view",
      "type": "function"
    },
    {
      "inputs": [
        {
          "internalType": "uint256",
          "name": "tokenId",
          "type": "uint256"
        }
      ],
      "name": "burn",
      "outputs": [],
      "stateMutability": "nonpayable",
      "type": "function"
    },
    {
      "inputs": [
        {
          "internalType": "uint256",
          "name": "tokenId",
          "type": "uint256"
        }
      ],
      "name": "buy",
      "outputs": [],
      "stateMutability": "payable",
      "type": "function"
    },
    {
      "inputs": [
        {
          "internalType": "uint256",
          "name": "tokenId",
          "type": "uint256"
        },
        {
          "internalType": "address",
          "name": "requester",
          "type": "address"
        }
      ],
      "name": "canAccess",
      "outputs": [
        {
          "internalType": "bool",
          "name": "",
          "type": "bool"
        }
      ],
      "stateMutability": "view",
      "type": "function"
    },
    {
      "inputs": [
        {
          "internalType": "uint256",
          "name": "tokenId",
          "type": "uint256"
        }
      ],
      "name": "cancelListing",
      "outputs": [],
      "stateMutability": "nonpayable",
      "type": "function"
    },
    {
      "inputs": [
        {
          "internalType": "uint256",
          "name": "tokenId",
          "type": "uint256"
        }
      ],
      "name": "getApproved",
      "outputs": [
        {
          "internalType": "address",
          "name": "",
          "type": "address"
        }
      ],
      "stateMutability": "view",
      "type": "function"
    },
    {
      "inputs": [
        {
          "internalType": "uint256",
          "name": "tokenId",
          "type": "uint256"
        }
      ],
      "name": "getContentMetadata",
      "outputs": [
        {
          "components": [
            {
              "internalType": "address",
              "name": "creator",
              "type": "address"
            },
            {
              "internalType": "enum ContentNFTMarketplace.ContentType",
              "name": "contentType",
              "type": "uint8"
            },
            {
              "internalType": "uint256",
              "name": "mintedAt",
              "type": "uint256"
            },
            {
              "internalType": "string",
              "name": "metadataURI",
              "type": "string"
            },
            {
              "internalType": "string",
              "name": "encryptedContentURI",
              "type": "string"
            },
            {
              "internalType": "string",
              "name": "previewURI",
              "type": "string"
            },
            {
              "internalType": "bytes32",
              "name": "contentHash",
              "type": "bytes32"
            },
            {
              "internalType": "string",
              "name": "encryptedAccessKey",
              "type": "string"
            },
            {
              "internalType": "uint64",
              "name": "perceptualHash",
              "type": "uint64"
            }
          ],
          "internalType": "struct ContentNFTMarketplace.ContentMetadata",
          "name": "",
          "type": "tuple"
        }
      ],
      "stateMutability": "view",
      "type": "function"
    },
    {
      "inputs": [
        {
          "internalType": "uint256",
          "name": "tokenId",
          "type": "uint256"
        }
      ],
      "name": "getEncryptedContentURI",
      "outputs": [
        {
          "internalType": "string",
          "name": "",
          "type": "string"
        }
      ],
      "stateMutability": "view",
      "type": "function"
    },
    {
      "inputs": [
        {
          "internalType": "uint256",
          "name": "tokenId",
          "type": "uint256"
        }
      ],
      "name": "getListing",
      "outputs": [
        {
          "components": [
            {
              "internalType": "address",
              "name": "seller",
              "type": "address"
            },
            {
              "internalType": "uint256",
              "name": "price",
              "type": "uint256"
            },
            {
              "internalType": "bool",
              "name": "isActive",
              "type": "bool"
            }
          ],
          "internalType": "struct ContentNFTMarketplace.Listing",
          "name": "",
          "type": "tuple"
        }
      ],
      "stateMutability": "view",
      "type": "function"
    },
    {
      "inputs": [
        {
          "internalType": "uint256",
          "name": "tokenId",
          "type": "uint256"
        }
      ],
      "name": "getPerceptualHash",
      "outputs": [
        {
          "internalType": "uint64",
          "name": "",
          "type": "uint64"
        }
      ],
      "stateMutability": "view",
      "type": "function"
    },
    {
      "inputs": [
        {
          "internalType": "bytes32",
          "name": "contentHash",
          "type": "bytes32"
        }
      ],
      "name": "getTokenIdByContentHash",
      "outputs": [
        {
          "internalType": "uint256",
          "name": "",
          "type": "uint256"
        }
      ],
      "stateMutability": "view",
      "type": "function"
    },
    {
      "inputs": [
        {
          "internalType": "address",
          "name": "owner",
          "type": "address"
        },
        {
          "internalType": "address",
          "name": "operator",
          "type": "address"
        }
      ],
      "name": "isApprovedForAll",
      "outputs": [
        {
          "internalType": "bool",
          "name": "",
          "type": "bool"
        }
      ],
      "stateMutability": "view",
      "type": "function"
    },
    {
      "inputs": [
        {
          "internalType": "bytes32",
          "name": "contentHash",
          "type": "bytes32"
        }
      ],
      "name": "isContentRegistered",
      "outputs": [
        {
          "internalType": "bool",
          "name": "",
          "type": "bool"
        }
      ],
      "stateMutability": "view",
      "type": "function"
    },
    {
      "inputs": [
        {
          "internalType": "uint256",
          "name": "tokenId",
          "type": "uint256"
        }
      ],
      "name": "isListed",
      "outputs": [
        {
          "internalType": "bool",
          "name": "",
          "type": "bool"
        }
      ],
      "stateMutability": "view",
      "type": "function"
    },
    {
      "inputs": [
        {
          "internalType": "uint256",
          "name": "tokenId",
          "type": "uint256"
        }
      ],
      "name": "isMarketplaceApproved",
      "outputs": [
        {
          "internalType": "bool",
          "name": "",
          "type": "bool"
        }
      ],
      "stateMutability": "view",
      "type": "function"
    },
    {
      "inputs": [
        {
          "internalType": "uint256",
          "name": "tokenId",
          "type": "uint256"
        },
        {
          "internalType": "uint256",
          "name": "price",
          "type": "uint256"
        }
      ],
      "name": "listForSale",
      "outputs": [],
      "stateMutability": "nonpayable",
      "type": "function"
    },
    {
      "inputs": [
        {
          "internalType": "string",
          "name": "metadataURI",
          "type": "string"
        },
        {
          "internalType": "string",
          "name": "encryptedContentURI",
          "type": "string"
        },
        {
          "internalType": "string",
          "name": "previewURI",
          "type": "string"
        },
        {
          "internalType": "bytes32",
          "name": "contentHash",
          "type": "bytes32"
        },
        {
          "internalType": "enum ContentNFTMarketplace.ContentType",
          "name": "contentType",
          "type": "uint8"
        },
        {
          "internalType": "uint96",
          "name": "royaltyBps",
          "type": "uint96"
        },
        {
          "internalType": "string",
          "name": "encryptedAccessKey",
          "type": "string"
        },
        {
          "internalType": "uint64",
          "name": "perceptualHash",
          "type": "uint64"
        }
      ],
      "name": "mint",
      "outputs": [
        {
          "internalType": "uint256",
          "name": "tokenId",
          "type": "uint256"
        }
      ],
      "stateMutability": "nonpayable",
      "type": "function"
    },
    {
      "inputs": [],
      "name": "name",
      "outputs": [
        {
          "internalType": "string",
          "name": "",
          "type": "string"
        }
      ],
      "stateMutability": "view",
      "type": "function"
    },
    {
      "inputs": [],
      "name": "owner",
      "outputs": [
        {
          "internalType": "address",
          "name": "",
          "type": "address"
        }
      ],
      "stateMutability": "view",
      "type": "function"
    },
    {
      "inputs": [
        {
          "internalType": "uint256",
          "name": "tokenId",
          "type": "uint256"
        }
      ],
      "name": "ownerOf",
      "outputs": [
        {
          "internalType": "address",
          "name": "",
          "type": "address"
        }
      ],
      "stateMutability": "view",
      "type": "function"
    },
    {
      "inputs": [
        {
          "internalType": "address",
          "name": "account",
          "type": "address"
        }
      ],
      "name": "pendingWithdrawals",
      "outputs": [
        {
          "internalType": "uint256",
          "name": "amount",
          "type": "uint256"
        }
      ],
      "stateMutability": "view",
      "type": "function"
    },
    {
      "inputs": [],
      "name": "platformBalance",
      "outputs": [
        {
          "internalType": "uint256",
          "name": "",
          "type": "uint256"
        }
      ],
      "stateMutability": "view",
      "type": "function"
    },
    {
      "inputs": [],
      "name": "platformFeeBps",
      "outputs": [
        {
          "internalType": "uint96",
          "name": "",
          "type": "uint96"
        }
      ],
      "stateMutability": "view",
      "type": "function"
    },
    {
      "inputs": [],
      "name": "renounceOwnership",
      "outputs": [],
      "stateMutability": "nonpayable",
      "type": "function"
    },
    {
      "inputs": [
        {
          "internalType": "uint256",
          "name": "tokenId",
          "type": "uint256"
        },
        {
          "internalType": "uint256",
          "name": "salePrice",
          "type": "uint256"
        }
      ],
      "name": "royaltyInfo",
      "outputs": [
        {
          "internalType": "address",
          "name": "receiver",
          "type": "address"
        },
        {
          "internalType": "uint256",
          "name": "amount",
          "type": "uint256"
        }
      ],
      "stateMutability": "view",
      "type": "function"
    },
    {
      "inputs": [
        {
          "internalType": "address",
          "name": "from",
          "type": "address"
        },
        {
          "internalType": "address",
          "name": "to",
          "type": "address"
        },
        {
          "internalType": "uint256",
          "name": "tokenId",
          "type": "uint256"
        }
      ],
      "name": "safeTransferFrom",
      "outputs": [],
      "stateMutability": "nonpayable",
      "type": "function"
    },
    {
      "inputs": [
        {
          "internalType": "address",
          "name": "from",
          "type": "address"
        },
        {
          "internalType": "address",
          "name": "to",
          "type": "address"
        },
        {
          "internalType": "uint256",
          "name": "tokenId",
          "type": "uint256"
        },
        {
          "internalType": "bytes",
          "name": "data",
          "type": "bytes"
        }
      ],
      "name": "safeTransferFrom",
      "outputs": [],
      "stateMutability": "nonpayable",
      "type": "function"
    },
    {
      "inputs": [
        {
          "internalType": "address",
          "name": "operator",
          "type": "address"
        },
        {
          "internalType": "bool",
          "name": "approved",
          "type": "bool"
        }
      ],
      "name": "setApprovalForAll",
      "outputs": [],
      "stateMutability": "nonpayable",
      "type": "function"
    },
    {
      "inputs": [
        {
          "internalType": "uint96",
          "name": "newFeeBps",
          "type": "uint96"
        }
      ],
      "name": "setPlatformFee",
      "outputs": [],
      "stateMutability": "nonpayable",
      "type": "function"
    },
    {
      "inputs": [
        {
          "internalType": "bytes4",
          "name": "interfaceId",
          "type": "bytes4"
        }
      ],
      "name": "supportsInterface",
      "outputs": [
        {
          "internalType": "bool",
          "name": "",
          "type": "bool"
        }
      ],
      "stateMutability": "view",
      "type": "function"
    },
    {
      "inputs": [],
      "name": "symbol",
      "outputs": [
        {
          "internalType": "string",
          "name": "",
          "type": "string"
        }
      ],
      "stateMutability": "view",
      "type": "function"
    },
    {
      "inputs": [
        {
          "internalType": "uint256",
          "name": "tokenId",
          "type": "uint256"
        }
      ],
      "name": "tokenURI",
      "outputs": [
        {
          "internalType": "string",
          "name": "",
          "type": "string"
        }
      ],
      "stateMutability": "view",
      "type": "function"
    },
    {
      "inputs": [],
      "name": "totalMinted",
      "outputs": [
        {
          "internalType": "uint256",
          "name": "",
          "type": "uint256"
        }
      ],
      "stateMutability": "view",
      "type": "function"
    },
    {
      "inputs": [
        {
          "internalType": "address",
          "name": "from",
          "type": "address"
        },
        {
          "internalType": "address",
          "name": "to",
          "type": "address"
        },
        {
          "internalType": "uint256",
          "name": "tokenId",
          "type": "uint256"
        }
      ],
      "name": "transferFrom",
      "outputs": [],
      "stateMutability": "nonpayable",
      "type": "function"
    },
    {
      "inputs": [
        {
          "internalType": "address",
          "name": "newOwner",
          "type": "address"
        }
      ],
      "name": "transferOwnership",
      "outputs": [],
      "stateMutability": "nonpayable",
      "type": "function"
    },
    {
      "inputs": [],
      "name": "withdraw",
      "outputs": [],
      "stateMutability": "nonpayable",
      "type": "function"
    },
    {
      "inputs": [],
      "name": "withdrawPlatformFees",
      "outputs": [],
      "stateMutability": "nonpayable",
      "type": "function"
    }
  ],
  "bytecode": "0x6080346200041c57601f19906001600160401b03601f62002e5a3881900382810186168501919084831186841017620004205780869260409485528339810103126200041c5782516001600160601b03811694908590036200041c576020938401516001600160a01b039384821692918390036200041c576200008162000434565b936012855271436f6e74656e74436572746966696361746560701b87860152620000aa62000434565b6004978882526310d1549560e21b8183015286518481116200040957600254976001988981811c91168015620003fe575b84821014620003eb5790818684931162000397575b50839086831160011462000335575f9262000329575b50505f19600383901b1c191690881b176002555b8151938411620003165760039485548881811c911680156200030b575b83821014620002f8579081858796959493116200029f575b50819385116001146200023c5750505f9262000230575b50505f1982841b1c191690841b1790555b817f9b779b17422d0df92223018b32b4d1fa46e071723d6817e2486d003becc55f005580156200021957600980546001600160a01b03198116831790915560405193167f8be0079c531659141344cd1fd0a4f28419497f9722a3daafe3b4186f6b6457e05f80a3600a556101f483116200020d57600f80546001600160601b03191684179055604051612a059081620004558239f35b63d086646b60e01b8152fd5b604051631e4fbdf760e01b81525f81860152602490fd5b015190505f8062000166565b88959392919316865f52835f20935f905b8282106200028557505084116200026d575b505050811b01905562000177565b01515f1983861b60f8161c191690555f80806200025f565b8484015186558a979095019493840193908101906200024d565b909192939450865f52825f208580880160051c820192858910620002ee575b9188978c9297969594930160051c01915b828110620002df5750506200014f565b5f81558897508b9101620002cf565b92508192620002be565b60228b634e487b7160e01b5f525260245ffd5b90607f169062000137565b604189634e487b7160e01b5f525260245ffd5b015190505f8062000106565b90888b94169160025f52855f20925f5b8782821062000380575050841162000367575b505050811b016002556200011a565b01515f1960f88460031b161c191690555f808062000358565b8385015186558e9790950194938401930162000345565b90915060025f52835f208680850160051c820192868610620003e1575b918c91869594930160051c01915b828110620003d2575050620000f0565b5f81558594508c9101620003c2565b92508192620003b4565b60228c634e487b7160e01b5f525260245ffd5b90607f1690620000db565b60418a634e487b7160e01b5f525260245ffd5b5f80fd5b634e487b7160e01b5f52604160045260245ffd5b60408051919082016001600160401b03811183821017620004205760405256fe6080806040526004361015610012575f80fd5b5f3560e01c90816301ffc9a714611f6d5750806306fdde0314611ec4578063081812fc14611ea6578063095ea7b314611dc5578063107a274a14611d3e57806322dcd13e14611d1857806323b872dd14611d015780632a55205a14611ccd578063305a67a814611c2957806336e0728714611bfd5780633ccfd60b14611b375780633dca40e614611b1b57806342842e0e14611aee57806342966c681461191457806362a5dbbc146118f75780636352211e146118c75780636f985e321461189f57806370a0823114611849578063715018a6146117ee578063784c603d146116385780638d01513c1461161c5780638da5cb5b146115f457806395d89b4114611516578063a22cb4651461144e578063a2309ff814611425578063b3bb17fc146113ee578063b88d4fde14611381578063c87b56dd1461134a578063d0b7830b14611288578063d5b2d1ed1461124e578063d96a094a14611002578063e753424314610fd8578063e80d7fec14610eab578063e985e9c514610e59578063ecf8c7fe14610386578063f2fde38b146102ff578063f3f43703146102c7578063f46130d614610291578063f99e5dbb1461020a5763fcce4883146101d4575f80fd5b34610206576020366003190112610206576004355f52600c602052602060ff600260405f200154166040519015158152f35b5f80fd5b34610206576020366003190112610206576004356001600160601b038116809103610206576102376127b7565b6101f4811161027f576020817f7cb8fa1ce2fc1ff6556e563c0dcba551db7cdeb3f3b0911243692639ac80e94d926001600160601b0319600f541617600f55604051908152a1005b60405163d086646b60e01b8152600490fd5b34610206576020366003190112610206576004355f52600b60205260206001600160401b03600760405f20015416604051908152f35b34610206576020366003190112610206576001600160a01b036102e8612052565b165f52600e602052602060405f2054604051908152f35b3461020657602036600319011261020657610318612052565b6103206127b7565b6001600160a01b0390811690811561036e57600954826001600160601b0360a01b821617600955167f8be0079c531659141344cd1fd0a4f28419497f9722a3daafe3b4186f6b6457e05f80a3005b604051631e4fbdf760e01b81525f6004820152602490fd5b3461020657610100366003190112610206576004356001600160401b038111610206576103b790369060040161219a565b906024356001600160401b038111610206576103d790369060040161219a565b9290916044356001600160401b038111610206576103f990369060040161219a565b919092600560843510156102065760a435936001600160601b03851685036102065760c4356001600160401b0381116102065761043a90369060040161219a565b909660e435906001600160401b0382168203610206578415610e47578915610e35576107d06001600160601b03891611610e235760643515610e11576064355f52600d60205260405f205480610df95750600a54985f198a14610de55760018a01600a556040516104aa8161210d565b5f81523315610dcd576001600160a01b036104c58c33612639565b16610db557333b610cc0575b506104dd368789612164565b8a5f52600860205260405f20908051906001600160401b0382116109e65761050583546121c7565b601f8111610c90575b50602090601f8311600114610c285761053e92915f9183610c1d575b50508160011b915f199060031b1c19161790565b90555b7ff8e1a15aba9398e019f0b49df1a4fde98ee17ae345cb5f6b5e2c27f5033e8ce760206040518c8152a1612710806001600160601b038b1611610bf05750604051938460408101106001600160401b036040870111176109e65761062f61065393868c8e60406001600160401b039a016040523383526001600160601b0360208401921682525f52600160205260405f209160018060a01b03905116906001600160601b0360a01b905160a01b161790556040519d8e610600816120f1565b338152610612608435602083016125d1565b4260408201526060610625368d8f612164565b9101523691612164565b60808d015261063f368a88612164565b60a08d015260643560c08d01523691612164565b60e08a015216610100880152855f52600b60205260405f209360018060a01b0388511685549060208a01516005811015610bdc576001600160a81b03199092161760a09190911b60ff60a01b161785556040880151600186015560608801518051906001600160401b0382116109e6576106d060028801546121c7565b601f8111610ba9575b50602090601f8311600114610b3f5761070892915f91836109fa5750508160011b915f199060031b1c19161790565b60028601555b60808801518051906001600160401b0382116109e65761073160038801546121c7565b601f8111610b0c575b50602090601f8311600114610aa25761076992915f91836109fa5750508160011b915f199060031b1c19161790565b60038601555b60a08801518051906001600160401b0382116109e65761079260048801546121c7565b601f8111610a6f575b50602090601f8311600114610a05576107ca92915f91836109fa5750508160011b915f199060031b1c19161790565b60048601555b60c0880151600586015560e0880151938451986001600160401b038a116109e657602099899661080360068a01546121c7565b601f81116109aa575b508b90601f83116001146108f457926001600160401b0361010060077fa45b51eb19c922714eaada0c4f859ab805d5100553dddfd0707c9556218777c79b9c61087d876108c6986001600160601b039d9b986108d49d9b5f926108e95750508160011b915f199060031b1c19161790565b60068201555b01920151166001600160401b03198254161790556064355f52600d8c528860405f2055604051966108b6886084356120c9565b60808d89015260808801916125f7565b9185830360408701526125f7565b941660608201528033940390a3604051908152f35b015190505f8061052a565b9060068a9495969798999a015f528c5f20915f5b601f1985168110610990575061010060076001600160601b0399966001876108d49b977fa45b51eb19c922714eaada0c4f859ab805d5100553dddfd0707c9556218777c79f9e9b976001600160401b03976108c69b601f19811610610978575b505050811b016006820155610883565b01515f1960f88460031b161c191690555f8080610968565b8183015184558d9b50600190930192918e01918e01610908565b6109d69060068b015f528d5f20601f850160051c8101918f86106109dc575b601f0160051c0190612573565b8c61080c565b90915081906109c9565b634e487b7160e01b5f52604160045260245ffd5b015190508b8061052a565b90601f19831691600489015f5260205f20925f5b818110610a575750908460019594939210610a3f575b505050811b0160048601556107d0565b01515f1960f88460031b161c191690558a8080610a2f565b92936020600181928786015181550195019301610a19565b610a9c90600489015f5260205f20601f850160051c810191602086106109dc57601f0160051c0190612573565b8a61079b565b90601f19831691600389015f5260205f20925f5b818110610af45750908460019594939210610adc575b505050811b01600386015561076f565b01515f1960f88460031b161c191690558a8080610acc565b92936020600181928786015181550195019301610ab6565b610b3990600389015f5260205f20601f850160051c810191602086106109dc57601f0160051c0190612573565b8a61073a565b90601f19831691600289015f5260205f20925f5b818110610b915750908460019594939210610b79575b505050811b01600286015561070e565b01515f1960f88460031b161c191690558a8080610b69565b92936020600181928786015181550195019301610b53565b610bd690600289015f5260205f20601f850160051c810191602086106109dc57601f0160051c0190612573565b8a6106d9565b634e487b7160e01b5f52602160045260245ffd5b8a6064916001600160601b038c6040519363dfd1fc1b60e01b855260048501521660248301526044820152fd5b015190508f8061052a565b9190835f5260205f20905f935b601f1984168510610c75576001945083601f19811610610c5d575b505050811b019055610541565b01515f1960f88460031b161c191690558e8080610c50565b81810151835560209485019460019093019290910190610c35565b610cba90845f5260205f20601f850160051c810191602086106109dc57601f0160051c0190612573565b8e61050e565b6020610cfb918c6040519384928392630a85bd0160e11b84523360048501525f6024850152604484015260806064840152608483019061202d565b03815f335af15f9181610d70575b50610d3b57610d16612506565b80519081610d3657604051633250574960e11b8152336004820152602490fd5b602001fd5b6001600160e01b03191663757a42ff60e11b01610d58578b6104d1565b604051633250574960e11b8152336004820152602490fd5b9091506020813d602011610dad575b81610d8c60209383612128565b8101031261020657516001600160e01b03198116810361020657908d610d09565b3d9150610d7f565b6040516339e3563760e11b81525f6004820152602490fd5b604051633250574960e11b81525f6004820152602490fd5b634e487b7160e01b5f52601160045260245ffd5b60249060405190637eac665d60e11b82526004820152fd5b6040516368e1d61b60e01b8152600490fd5b60405163c2b03beb60e01b8152600490fd5b60405163318351b960e01b8152600490fd5b604051632f12599b60e21b8152600490fd5b3461020657604036600319011261020657610e72612052565b610e7a612068565b9060018060a01b038091165f52600760205260405f2091165f52602052602060ff60405f2054166040519015158152f35b3461020657610eb9366120b3565b90610ec381612617565b6001600160a01b03903390821603610fc6578215610fb457815f52600c60205260ff600260405f20015416610fa257610efb8261276c565b15610f9057610f6290600260405191610f13836120d6565b33835260208301868152604084019160018352865f52600c60205260405f209451166001600160601b0360a01b85541617845551600184015551151591019060ff801983541691151516179055565b6040519182527f50955776c5778c3b7d968d86d8c51fb6b29a7a74c20866b533268e209fc0834360203393a3005b60405163a9248d2560e01b8152600490fd5b6040516328f560bb60e21b8152600490fd5b6040516323a3620960e01b8152600490fd5b6040516359dc379f60e01b8152600490fd5b34610206576020366003190112610206576004355f52600d602052602060405f2054604051908152f35b6020806003193601126102065760043561101a61273d565b805f52600c825260405f20604051611031816120d6565b81546001600160a01b039081168252600183015485830190815260029093015460ff16158015604084015261123c578251340361122a578082511633146112185761107b84612617565b8180845116911603610fc6576110908461276c565b15610f9057835f52600c85525f60026040822082815582600182015501556110b98351856124af565b919092816127106110d787516001600160601b03600f54169061249c565b04946110ed866110e8878a516125dd565b6125dd565b828451165f52600e8a5261110660405f209182546125ea565b9055846111f9575b505061111c846010546125ea565b60105581815116604051906111308261210d565b5f82523315610dcd576111438833612639565b8085168061116457604051637e27328960e01b8152600481018b9052602490fd5b8290999899036111c95750908661117d923390336127e3565b511693519460405195865285015260408401527fd54b56881e7d8e485ae13972347facc2cbdf328603b65c7af6c972cf81a5393360603394a460015f805160206129b083398151915255005b6040516364283d7b60e01b81526001600160a01b0392831660048201526024810189905291166044820152606490fd5b165f52600e875260405f2061120f8482546125ea565b9055818861110e565b604051632844e8ff60e21b8152600490fd5b60405163569e8c1160e01b8152600490fd5b60405163665c1c5760e01b8152600490fd5b34610206576040366003190112610206576020611269612068565b611274600435612617565b60018060a01b038060405193169116148152f35b34610206575f366003190112610206576112a06127b7565b6112a861273d565b601054801561131b575f6010557f7084f5476618d8e60b11ef0d7d3f06914655adb8793e28ff7f018d4c76d505d5602060018060a01b036112fc5f8080808886600954165af16112f6612506565b50612535565b6009541692604051908152a260015f805160206129b083398151915255005b60405162461bcd60e51b81526020600482015260076024820152664e6f206665657360c81b6044820152606490fd5b346102065760203660031901126102065761137d6113696004356128fd565b60405191829160208352602083019061202d565b0390f35b346102065760803660031901126102065761139a612052565b6113a2612068565b90604435606435926001600160401b0384116102065736602385011215610206576113da6113ec943690602481600401359101612164565b926113e68383836122c5565b336127e3565b005b346102065760203660031901126102065760043561140b81612617565b505f52600b60205261137d611369600360405f20016121ff565b34610206575f36600319011261020657600a545f198101908111610de557602090604051908152f35b3461020657604036600319011261020657611467612052565b60243590811515908183036102065733156114fe576001600160a01b03169182156114e5576114b790335f52600760205260405f20845f5260205260405f209060ff801983541691151516179055565b6040519081527f17307eab39ab6107e8899845ad3d59bd9653f200f220920489ca2b5937696c3160203392a3005b604051630b61174360e31b815260048101849052602490fd5b60405163a9fbf51f60e01b81525f6004820152602490fd5b34610206575f366003190112610206576040516003545f82611537836121c7565b91828252602093600190856001821691825f146115d4575050600114611579575b5061156592500383612128565b61137d60405192828493845283019061202d565b84915060035f527fc2575a0e9e593c00f959f8c92f12db2869c3395a3b0502d05e2516446f71f85b905f915b8583106115bc575050611565935082010185611558565b805483890185015287945086939092019181016115a5565b60ff19168582015261156595151560051b85010192508791506115589050565b34610206575f366003190112610206576009546040516001600160a01b039091168152602090f35b34610206575f3660031901126102065760206040516101f48152f35b3461020657602080600319360112610206576004359060405161165a816120f1565b5f81525f828201525f604082015260609283808301528360808301528360a08301525f60c08301528360e08301525f61010080930152805f52600b835260018060a01b03908160405f20541615610e11575f52600b835260405f206040519485936116c4856120f1565b82549084821686528686019160a01c60ff166116e090836125d1565b600184015460408701908152946116f9600286016121ff565b87850190815261170b600387016121ff565b608089019081529461171f600488016121ff565b9760a08a0198895260058801549560c08b019687528b60068a01611742906121ff565b9560e08d01968752876001600160401b036007819d0154169d019c8d526040519e8f9e8f525116908d01525160408c0161177b916120c9565b51908a01525195610120968760808b01526101408a0161179a9161202d565b9451601f1995868b82030160a08c01526117b39161202d565b905190858a82030160c08b01526117c99161202d565b925160e0890152519287830301908701526117e39161202d565b925116908301520390f35b34610206575f366003190112610206576118066127b7565b600980546001600160a01b031981169091555f906001600160a01b03167f8be0079c531659141344cd1fd0a4f28419497f9722a3daafe3b4186f6b6457e08280a3005b34610206576020366003190112610206576001600160a01b0361186a612052565b168015611887575f526005602052602060405f2054604051908152f35b6040516322718ad960e21b81525f6004820152602490fd5b346102065760203660031901126102065760206118bd60043561276c565b6040519015158152f35b346102065760203660031901126102065760206118e5600435612617565b6040516001600160a01b039091168152f35b34610206575f366003190112610206576020601054604051908152f35b3461020657602080600319360112610206576004359061193382612617565b6001600160a01b03903390821603610fc657825f52600c825260ff600260405f20015416610fa257825f52600b8252600560405f20015480611adc575b50825f52600b82525f60076040822082815582600182015561199460028201612589565b6119a060038201612589565b6119ac60048201612589565b8260058201556119be60068201612589565b0155825f526004825260405f20541690811591835f84159283611aaa575b828252600485526040822080546001600160a01b03191690557fddf252ad1be2c89b69c2b068fc378daa952ba7f163c4a11628f55a4df523b3ef8280a48080611aa2575b5080611a8d575b611a71575b50611a595733907fe861e0b12c283de7ca3f4d68d33f3bfc6fc01e4896cddf05e52b8f2a1e548e245f80a3005b60249060405190637e27328960e01b82526004820152fd5b600c90525f600260408220828155826001820155015582611a2c565b50600c815260ff600260405f20015416611a27565b905084611a20565b5f83815260066020526040902080546001600160a01b03191690558082526005855260408220821981540190556119dc565b5f52600d82525f604081205583611970565b34610206576113ec611aff3661207e565b9060405192611b0d8461210d565b5f84526113e68383836122c5565b34610206575f3660031901126102065760206040516107d08152f35b34610206575f36600319011261020657611b4f61273d565b335f52600e60205260405f20548015611bc257335f52600e6020525f6040812055611b835f80808085335af16112f6612506565b6040519081527f7084f5476618d8e60b11ef0d7d3f06914655adb8793e28ff7f018d4c76d505d560203392a260015f805160206129b083398151915255005b60405162461bcd60e51b81526020600482015260136024820152724e6f7468696e6720746f20776974686472617760681b6044820152606490fd5b34610206576020366003190112610206576004355f52600d602052602060405f20541515604051908152f35b3461020657602036600319011261020657600435805f52600c60205260405f20604051611c55816120d6565b81546001600160a01b0390811682526001830154602083015260029092015460ff16158015604083015261123c5751163303610fc657805f52600c6020525f600260408220828155826001820155015533907f8e25282255ab31897df2b0456bb993ac7f84d376861aefd84901d2d63a7428a25f80a3005b3461020657611ce4611cde366120b3565b906124af565b604080516001600160a01b03939093168352602083019190915290f35b34610206576113ec611d123661207e565b916122c5565b34610206575f3660031901126102065760206001600160601b03600f5416604051908152f35b34610206576020366003190112610206575f60408051611d5d816120d6565b82815282602082015201526004355f52600c602052606060405f20604051611d84816120d6565b60018060a01b0382541691828252604060ff600260018401549360208601948552015416920191151582526040519283525160208301525115156040820152f35b3461020657604036600319011261020657611dde612052565b602435611dea81612617565b33151580611e93575b80611e6a575b611e52576001600160a01b039283169282918491167f8c5be1e5ebec7d5bd14f71427d1e84f3dd0314c0f7b2291e5b200ac8c7c3b9255f80a45f90815260066020526040902080546001600160a01b0319169091179055005b60405163a9fbf51f60e01b8152336004820152602490fd5b5060018060a01b0381165f52600760205260405f20335f5260205260ff60405f20541615611df9565b506001600160a01b038116331415611df3565b346102065760203660031901126102065760206118e56004356122a1565b34610206575f366003190112610206576040516002545f82611ee5836121c7565b91828252602093600190856001821691825f146115d4575050600114611f12575061156592500383612128565b84915060025f527f405787fa12a823e0f2b7631cc41b3ba8828b3321ca811111fa75cd3aa3bb5ace905f915b858310611f55575050611565935082010185611558565b80548389018501528794508693909201918101611f3e565b34610206576020366003190112610206576004359063ffffffff60e01b821680920361020657602091632483248360e11b8114908115611faf575b5015158152f35b6380ac58cd60e01b811491508115611ffb575b8115611fd0575b5083611fa8565b63152a902d60e11b811491508115611fea575b5083611fc9565b6301ffc9a760e01b14905083611fe3565b635b5e139f60e01b81149150611fc2565b5f5b83811061201d5750505f910152565b818101518382015260200161200e565b906020916120468151809281855285808601910161200c565b601f01601f1916010190565b600435906001600160a01b038216820361020657565b602435906001600160a01b038216820361020657565b6060906003190112610206576001600160a01b0390600435828116810361020657916024359081168103610206579060443590565b6040906003190112610206576004359060243590565b906005821015610bdc5752565b606081019081106001600160401b038211176109e657604052565b61012081019081106001600160401b038211176109e657604052565b602081019081106001600160401b038211176109e657604052565b90601f801991011681019081106001600160401b038211176109e657604052565b6001600160401b0381116109e657601f01601f191660200190565b92919261217082612149565b9161217e6040519384612128565b829481845281830111610206578281602093845f960137010152565b9181601f84011215610206578235916001600160401b038311610206576020838186019501011161020657565b90600182811c921680156121f5575b60208310146121e157565b634e487b7160e01b5f52602260045260245ffd5b91607f16916121d6565b9060405191825f8254612211816121c7565b908184526020946001916001811690815f1461227f5750600114612241575b50505061223f92500383612128565b565b5f90815285812095935091905b81831061226757505061223f93508201015f8080612230565b8554888401850152948501948794509183019161224e565b9250505061223f94925060ff191682840152151560051b8201015f8080612230565b6122aa81612617565b505f908152600660205260409020546001600160a01b031690565b906001600160a01b03908116908115610dcd57835f526020906004825260409181835f205416933315158061240e575b5084151590816123dd575b805f5260058352845f2060018154019055875f5260048352845f20816001600160601b0360a01b8254161790558781877fddf252ad1be2c89b69c2b068fc378daa952ba7f163c4a11628f55a4df523b3ef5f80a4816123d2575b50806123be575b6123a3575b50831682036123755750505050565b516364283d7b60e01b81526001600160a01b0392831660048201526024810193909352166044820152606490fd5b600c90525f600283822082815582600182015501555f612366565b50600c815260ff6002845f20015416612361565b90508414155f61235a565b5f88815260066020526040812080546001600160a01b03191690558681526005845285902080545f19019055612300565b8061245b575b1561241f575f6122f5565b83878661243c576024915190637e27328960e01b82526004820152fd5b905163177e802f60e01b81523360048201526024810191909152604490fd5b503385148015612480575b806124145750865f52600682523383855f20541614612414565b50845f5260078252835f20335f52825260ff845f205416612466565b81810292918115918404141715610de557565b5f908152600160205260409020546001600160a01b0380821693929160a01c9084156124f2575b50612710916001600160601b036124ee92169061249c565b0490565b5f54908116945060a01c90506127106124d6565b3d15612530573d9061251782612149565b916125256040519384612128565b82523d5f602084013e565b606090565b1561253c57565b60405162461bcd60e51b815260206004820152600f60248201526e151c985b9cd9995c8819985a5b1959608a1b6044820152606490fd5b81811061257e575050565b5f8155600101612573565b61259381546121c7565b908161259d575050565b81601f5f93116001146125ae575055565b9080839182526125cd601f60208420940160051c840160018501612573565b5555565b6005821015610bdc5752565b91908203918211610de557565b91908201809211610de557565b908060209392818452848401375f828201840152601f01601f1916010190565b5f818152600460205260409020546001600160a01b0316908115611a59575090565b90805f5260206004815260018060a01b039260409284845f20541694851515928361270c575b1690816126f6575b805f5260048452845f20826001600160601b0360a01b82541617905581867fddf252ad1be2c89b69c2b068fc378daa952ba7f163c4a11628f55a4df523b3ef5f80a4816126eb575b50806126d7575b6126bf57505090565b5f91600c600292528220828155826001820155015590565b50600c815260ff6002835f200154166126b6565b90508314155f6126af565b815f5260058452845f2060018154019055612667565b5f83815260066020526040812080546001600160a01b03191690558781526005865286902080545f1901905561265f565b5f805160206129b0833981519152600281541461275a5760029055565b604051633ee5aeb560e01b8152600490fd5b61277e61277882612617565b916122a1565b6001600160a01b03908116301491821561279757505090565b909150165f52600760205260405f20305f5260205260ff60405f20541690565b6009546001600160a01b031633036127cb57565b60405163118cdaa760e01b8152336004820152602490fd5b9291803b6127f3575b5050505050565b604051630a85bd0160e11b8082526001600160a01b0395861660048301529285166024820152604481019390935260806064840152909216926020908290819061284190608483019061202d565b03815f875af15f91816128b8575b50612886578261285d612506565b805191908261287f57604051633250574960e11b815260048101839052602490fd5b6020915001fd5b6001600160e01b031916036128a057505f808080806127ec565b60249060405190633250574960e11b82526004820152fd5b9091506020813d6020116128f5575b816128d460209383612128565b8101031261020657516001600160e01b03198116810361020657905f61284f565b3d91506128c7565b61290681612617565b50604051906129148261210d565b5f8252805f5260206008815261292c60405f206121ff565b9280519384156129a757805161296a575050506129499150612617565b505f6040516129578161210d565b526040516129648161210d565b5f815290565b6129a493508461298460405196879486808701910161200c565b82016129988251809386808501910161200c565b01038084520182612128565b90565b93505050509056fe9b779b17422d0df92223018b32b4d1fa46e071723d6817e2486d003becc55f00a26469706673582212200f1f4acfce741d2c5b86b519db4d37a39bb3b2607ac31ef557160fed0fcefb0d64736f6c63430008180033",
  "linkReferences": {},
  "deployedLinkReferences": {}
}